{
    "contractName": "DataTypes",
    "abi": [
        {
            "inputs": [],
            "name": "getStateVariables",
            "outputs": [
                {
                    "internalType": "uint256",
                    "name": "",
                    "type": "uint256"
                },
                {
                    "internalType": "int256",
                    "name": "",
                    "type": "int256"
                },
                {
                    "internalType": "uint256",
                    "name": "",
                    "type": "uint256"
                },
                {
                    "internalType": "bool",
                    "name": "",
                    "type": "bool"
                },
                {
                    "internalType": "address",
                    "name": "",
                    "type": "address"
                },
                {
                    "internalType": "bytes32",
                    "name": "",
                    "type": "bytes32"
                },
                {
                    "internalType": "string",
                    "name": "",
                    "type": "string"
                }
            ],
            "stateMutability": "view",
            "type": "function"
        }
    ],
    "bytecode": "6009600055604319600155600280546201000033026001600160b01b0319909116176101111790556468656c6c6f60d81b600381905560c06040526005608081905260a091825261005291600491610065565b5034801561005f57600080fd5b50610139565b828054610071906100fe565b90600052602060002090601f01602090048101928261009357600085556100d9565b82601f106100ac57805160ff19168380011785556100d9565b828001600101855582156100d9579182015b828111156100d95782518255916020019190600101906100be565b506100e59291506100e9565b5090565b5b808211156100e557600081556001016100ea565b600181811c9082168061011257607f821691505b6020821081141561013357634e487b7160e01b600052602260045260246000fd5b50919050565b610234806101486000396000f3fe608060405234801561001057600080fd5b506004361061002b5760003560e01c8063dde89cf514610030575b600080fd5b610038610054565b60405161004b9796959493929190610136565b60405180910390f35b60008054600154600254600354600480548695869586958695869560609560ff80851694610100810490911693620100009091046001600160a01b0316929091819061009f906101c3565b80601f01602080910402602001604051908101604052809291908181526020018280546100cb906101c3565b80156101185780601f106100ed57610100808354040283529160200191610118565b820191906000526020600020905b8154815290600101906020018083116100fb57829003601f168201915b50505050509050965096509650965096509650965090919293949596565b878152600060208881840152876040840152861515606084015260018060a01b03861660808401528460a084015260e060c084015283518060e085015260005b818110156101935785810183015185820161010001528201610176565b818111156101a657600061010083870101525b50601f01601f191692909201610100019998505050505050505050565b600181811c908216806101d757607f821691505b602082108114156101f857634e487b7160e01b600052602260045260246000fd5b5091905056fea264697066735822122020087be9439908146c0d894c0f140698e6d8d72a76924bd2788058b726f66b5864736f6c634300080a0033",
    "sourcePath": "/Users/ashok/Desktop/Blockchain-Workspace/secondproject/contracts/Datatypes.sol",
    "compiler": {
        "name": "solc",
        "version": "0.8.10+commit.fc410830"
    },
    "functionHashes": {
        "getStateVariables()": "dde89cf5"
    },
    "gasEstimates": {
        "creation": {
            "codeDepositCost": "112800",
            "executionCost": "infinite",
            "totalCost": "infinite"
        },
        "external": {
            "getStateVariables()": "infinite"
        }
    }
}